{
  "contractName": "APTSC",
  "abi": [
    {
      "anonymous": false,
      "inputs": [
        {
          "indexed": true,
          "internalType": "address",
          "name": "_owner",
          "type": "address"
        },
        {
          "indexed": true,
          "internalType": "address",
          "name": "_operator",
          "type": "address"
        },
        {
          "indexed": false,
          "internalType": "bool",
          "name": "_approved",
          "type": "bool"
        }
      ],
      "name": "ApprovalForAll",
      "type": "event"
    },
    {
      "anonymous": false,
      "inputs": [
        {
          "indexed": true,
          "internalType": "address",
          "name": "_operator",
          "type": "address"
        },
        {
          "indexed": true,
          "internalType": "address",
          "name": "_from",
          "type": "address"
        },
        {
          "indexed": true,
          "internalType": "address",
          "name": "_to",
          "type": "address"
        },
        {
          "indexed": false,
          "internalType": "uint256[]",
          "name": "_ids",
          "type": "uint256[]"
        },
        {
          "indexed": false,
          "internalType": "uint256[]",
          "name": "_values",
          "type": "uint256[]"
        }
      ],
      "name": "TransferBatch",
      "type": "event"
    },
    {
      "anonymous": false,
      "inputs": [
        {
          "indexed": true,
          "internalType": "address",
          "name": "_operator",
          "type": "address"
        },
        {
          "indexed": true,
          "internalType": "address",
          "name": "_from",
          "type": "address"
        },
        {
          "indexed": true,
          "internalType": "address",
          "name": "_to",
          "type": "address"
        },
        {
          "indexed": false,
          "internalType": "uint256",
          "name": "_id",
          "type": "uint256"
        },
        {
          "indexed": false,
          "internalType": "uint256",
          "name": "_value",
          "type": "uint256"
        }
      ],
      "name": "TransferSingle",
      "type": "event"
    },
    {
      "anonymous": false,
      "inputs": [
        {
          "indexed": false,
          "internalType": "string",
          "name": "_value",
          "type": "string"
        },
        {
          "indexed": true,
          "internalType": "uint256",
          "name": "_id",
          "type": "uint256"
        },
        {
          "indexed": true,
          "internalType": "address",
          "name": "_operator",
          "type": "address"
        }
      ],
      "name": "URI",
      "type": "event"
    },
    {
      "anonymous": false,
      "inputs": [
        {
          "indexed": false,
          "internalType": "string",
          "name": "_type",
          "type": "string"
        },
        {
          "indexed": true,
          "internalType": "address",
          "name": "_updatedAddress",
          "type": "address"
        },
        {
          "indexed": true,
          "internalType": "uint256",
          "name": "_id",
          "type": "uint256"
        }
      ],
      "name": "controllerUpdate",
      "type": "event"
    },
    {
      "anonymous": false,
      "inputs": [
        {
          "indexed": false,
          "internalType": "uint256[]",
          "name": "_inputIds",
          "type": "uint256[]"
        },
        {
          "indexed": false,
          "internalType": "uint256[]",
          "name": "_inputQuantities",
          "type": "uint256[]"
        },
        {
          "indexed": true,
          "internalType": "uint256",
          "name": "_outputId",
          "type": "uint256"
        },
        {
          "indexed": false,
          "internalType": "uint256",
          "name": "_outputQuantity",
          "type": "uint256"
        },
        {
          "indexed": true,
          "internalType": "address",
          "name": "_actor",
          "type": "address"
        }
      ],
      "name": "craftedToken",
      "type": "event"
    },
    {
      "anonymous": false,
      "inputs": [
        {
          "indexed": false,
          "internalType": "string",
          "name": "_serialNumber",
          "type": "string"
        },
        {
          "indexed": true,
          "internalType": "uint256",
          "name": "_id",
          "type": "uint256"
        },
        {
          "indexed": true,
          "internalType": "address",
          "name": "_actor",
          "type": "address"
        }
      ],
      "name": "serialNumber",
      "type": "event"
    },
    {
      "anonymous": false,
      "inputs": [
        {
          "indexed": false,
          "internalType": "string",
          "name": "_status",
          "type": "string"
        },
        {
          "indexed": true,
          "internalType": "uint256",
          "name": "_id",
          "type": "uint256"
        },
        {
          "indexed": true,
          "internalType": "address",
          "name": "_actor",
          "type": "address"
        }
      ],
      "name": "status",
      "type": "event"
    },
    {
      "constant": true,
      "inputs": [
        {
          "internalType": "address",
          "name": "_owner",
          "type": "address"
        },
        {
          "internalType": "uint256",
          "name": "_id",
          "type": "uint256"
        }
      ],
      "name": "balanceOf",
      "outputs": [
        {
          "internalType": "uint256",
          "name": "",
          "type": "uint256"
        }
      ],
      "payable": false,
      "stateMutability": "view",
      "type": "function"
    },
    {
      "constant": true,
      "inputs": [
        {
          "internalType": "address[]",
          "name": "_owners",
          "type": "address[]"
        },
        {
          "internalType": "uint256[]",
          "name": "_ids",
          "type": "uint256[]"
        }
      ],
      "name": "balanceOfBatch",
      "outputs": [
        {
          "internalType": "uint256[]",
          "name": "",
          "type": "uint256[]"
        }
      ],
      "payable": false,
      "stateMutability": "view",
      "type": "function"
    },
    {
      "constant": true,
      "inputs": [
        {
          "internalType": "uint256",
          "name": "",
          "type": "uint256"
        },
        {
          "internalType": "address",
          "name": "",
          "type": "address"
        }
      ],
      "name": "controllers",
      "outputs": [
        {
          "internalType": "bool",
          "name": "",
          "type": "bool"
        }
      ],
      "payable": false,
      "stateMutability": "view",
      "type": "function"
    },
    {
      "constant": true,
      "inputs": [
        {
          "internalType": "address",
          "name": "_owner",
          "type": "address"
        },
        {
          "internalType": "address",
          "name": "_operator",
          "type": "address"
        }
      ],
      "name": "isApprovedForAll",
      "outputs": [
        {
          "internalType": "bool",
          "name": "",
          "type": "bool"
        }
      ],
      "payable": false,
      "stateMutability": "view",
      "type": "function"
    },
    {
      "constant": true,
      "inputs": [],
      "name": "nonce",
      "outputs": [
        {
          "internalType": "uint256",
          "name": "",
          "type": "uint256"
        }
      ],
      "payable": false,
      "stateMutability": "view",
      "type": "function"
    },
    {
      "constant": false,
      "inputs": [
        {
          "internalType": "address",
          "name": "_from",
          "type": "address"
        },
        {
          "internalType": "address",
          "name": "_to",
          "type": "address"
        },
        {
          "internalType": "uint256[]",
          "name": "_ids",
          "type": "uint256[]"
        },
        {
          "internalType": "uint256[]",
          "name": "_values",
          "type": "uint256[]"
        },
        {
          "internalType": "bytes",
          "name": "_data",
          "type": "bytes"
        }
      ],
      "name": "safeBatchTransferFrom",
      "outputs": [],
      "payable": false,
      "stateMutability": "nonpayable",
      "type": "function"
    },
    {
      "constant": false,
      "inputs": [
        {
          "internalType": "address",
          "name": "_from",
          "type": "address"
        },
        {
          "internalType": "address",
          "name": "_to",
          "type": "address"
        },
        {
          "internalType": "uint256",
          "name": "_id",
          "type": "uint256"
        },
        {
          "internalType": "uint256",
          "name": "_value",
          "type": "uint256"
        },
        {
          "internalType": "bytes",
          "name": "_data",
          "type": "bytes"
        }
      ],
      "name": "safeTransferFrom",
      "outputs": [],
      "payable": false,
      "stateMutability": "nonpayable",
      "type": "function"
    },
    {
      "constant": false,
      "inputs": [
        {
          "internalType": "address",
          "name": "_operator",
          "type": "address"
        },
        {
          "internalType": "bool",
          "name": "_approved",
          "type": "bool"
        }
      ],
      "name": "setApprovalForAll",
      "outputs": [],
      "payable": false,
      "stateMutability": "nonpayable",
      "type": "function"
    },
    {
      "constant": true,
      "inputs": [
        {
          "internalType": "bytes4",
          "name": "_interfaceId",
          "type": "bytes4"
        }
      ],
      "name": "supportsInterface",
      "outputs": [
        {
          "internalType": "bool",
          "name": "",
          "type": "bool"
        }
      ],
      "payable": false,
      "stateMutability": "view",
      "type": "function"
    },
    {
      "constant": false,
      "inputs": [
        {
          "internalType": "uint256",
          "name": "_initialSupply",
          "type": "uint256"
        },
        {
          "internalType": "string",
          "name": "_uri",
          "type": "string"
        },
        {
          "internalType": "string",
          "name": "_serialNumber",
          "type": "string"
        },
        {
          "internalType": "address",
          "name": "_actor",
          "type": "address"
        }
      ],
      "name": "create",
      "outputs": [
        {
          "internalType": "uint256",
          "name": "_id",
          "type": "uint256"
        }
      ],
      "payable": false,
      "stateMutability": "nonpayable",
      "type": "function"
    },
    {
      "constant": false,
      "inputs": [
        {
          "internalType": "uint256[]",
          "name": "_inputIds",
          "type": "uint256[]"
        },
        {
          "internalType": "uint256[]",
          "name": "_inputQuantities",
          "type": "uint256[]"
        },
        {
          "internalType": "uint256",
          "name": "_outputInitialSupply",
          "type": "uint256"
        },
        {
          "internalType": "string",
          "name": "_uri",
          "type": "string"
        },
        {
          "internalType": "address",
          "name": "_actor",
          "type": "address"
        },
        {
          "internalType": "string",
          "name": "_serialNumber",
          "type": "string"
        }
      ],
      "name": "craft",
      "outputs": [
        {
          "internalType": "uint256",
          "name": "_id",
          "type": "uint256"
        }
      ],
      "payable": false,
      "stateMutability": "nonpayable",
      "type": "function"
    },
    {
      "constant": false,
      "inputs": [
        {
          "internalType": "uint256",
          "name": "_id",
          "type": "uint256"
        },
        {
          "internalType": "uint256",
          "name": "_quantity",
          "type": "uint256"
        },
        {
          "internalType": "address",
          "name": "_actor",
          "type": "address"
        }
      ],
      "name": "burnTokenBalance",
      "outputs": [],
      "payable": false,
      "stateMutability": "nonpayable",
      "type": "function"
    },
    {
      "constant": false,
      "inputs": [
        {
          "internalType": "uint256",
          "name": "_id",
          "type": "uint256"
        },
        {
          "internalType": "string",
          "name": "_URI",
          "type": "string"
        },
        {
          "internalType": "address",
          "name": "_actor",
          "type": "address"
        }
      ],
      "name": "newURI",
      "outputs": [],
      "payable": false,
      "stateMutability": "nonpayable",
      "type": "function"
    },
    {
      "constant": false,
      "inputs": [
        {
          "internalType": "uint256",
          "name": "_id",
          "type": "uint256"
        },
        {
          "internalType": "string",
          "name": "_status",
          "type": "string"
        },
        {
          "internalType": "address",
          "name": "_actor",
          "type": "address"
        }
      ],
      "name": "newStatus",
      "outputs": [],
      "payable": false,
      "stateMutability": "nonpayable",
      "type": "function"
    },
    {
      "constant": false,
      "inputs": [
        {
          "internalType": "uint256",
          "name": "_id",
          "type": "uint256"
        },
        {
          "internalType": "string",
          "name": "_serialNumber",
          "type": "string"
        },
        {
          "internalType": "address",
          "name": "_actor",
          "type": "address"
        }
      ],
      "name": "newSerialNumber",
      "outputs": [],
      "payable": false,
      "stateMutability": "nonpayable",
      "type": "function"
    },
    {
      "constant": false,
      "inputs": [
        {
          "internalType": "uint256",
          "name": "_id",
          "type": "uint256"
        },
        {
          "internalType": "string",
          "name": "_URI",
          "type": "string"
        },
        {
          "internalType": "string",
          "name": "_status",
          "type": "string"
        },
        {
          "internalType": "string",
          "name": "_serialNumber",
          "type": "string"
        },
        {
          "internalType": "address",
          "name": "_actor",
          "type": "address"
        }
      ],
      "name": "updateMetadata",
      "outputs": [],
      "payable": false,
      "stateMutability": "nonpayable",
      "type": "function"
    },
    {
      "constant": true,
      "inputs": [
        {
          "internalType": "uint256",
          "name": "_id",
          "type": "uint256"
        },
        {
          "internalType": "address",
          "name": "_candidate",
          "type": "address"
        }
      ],
      "name": "isController",
      "outputs": [
        {
          "internalType": "bool",
          "name": "",
          "type": "bool"
        }
      ],
      "payable": false,
      "stateMutability": "view",
      "type": "function"
    },
    {
      "constant": false,
      "inputs": [
        {
          "internalType": "uint256",
          "name": "_id",
          "type": "uint256"
        },
        {
          "internalType": "address",
          "name": "_newController",
          "type": "address"
        }
      ],
      "name": "addController",
      "outputs": [],
      "payable": false,
      "stateMutability": "nonpayable",
      "type": "function"
    },
    {
      "constant": false,
      "inputs": [
        {
          "internalType": "uint256",
          "name": "_id",
          "type": "uint256"
        }
      ],
      "name": "renounceControl",
      "outputs": [],
      "payable": false,
      "stateMutability": "nonpayable",
      "type": "function"
    },
    {
      "constant": false,
      "inputs": [
        {
          "internalType": "uint256",
          "name": "_id",
          "type": "uint256"
        },
        {
          "internalType": "address",
          "name": "_newController",
          "type": "address"
        }
      ],
      "name": "transferControl",
      "outputs": [],
      "payable": false,
      "stateMutability": "nonpayable",
      "type": "function"
    }
  ],
  "bytecode": "0x608060405234801561001057600080fd5b50613fd5806100206000396000f3fe608060405234801561001057600080fd5b506004361061012b5760003560e01c80636d950059116100ad578063affed0e011610071578063affed0e014610bff578063e80b400214610c1d578063e985e9c514610c83578063f242432a14610cff578063f5c6e73a14610dcc5761012b565b80636d9500591461088557806389ef91471461092857806395c9150814610956578063a22cb46514610b0c578063a8d905c514610b5c5761012b565b806331b0b560116100f457806331b0b5601461040e57806334417ee7146104b15780634e1273f4146105095780635e08f3371461062c57806368d19a55146107385761012b565b8062fdd58e1461013057806301ffc9a714610192578063158e711d146101f7578063237a420d1461025d5780632eb2c2d6146102ab575b600080fd5b61017c6004803603604081101561014657600080fd5b81019080803573ffffffffffffffffffffffffffffffffffffffff16906020019092919080359060200190929190505050610e1a565b6040518082815260200191505060405180910390f35b6101dd600480360360208110156101a857600080fd5b8101908080357bffffffffffffffffffffffffffffffffffffffffffffffffffffffff19169060200190929190505050610e74565b604051808215151515815260200191505060405180910390f35b6102436004803603604081101561020d57600080fd5b8101908080359060200190929190803573ffffffffffffffffffffffffffffffffffffffff169060200190929190505050610edd565b604051808215151515815260200191505060405180910390f35b6102a96004803603604081101561027357600080fd5b8101908080359060200190929190803573ffffffffffffffffffffffffffffffffffffffff169060200190929190505050610f45565b005b61040c600480360360a08110156102c157600080fd5b81019080803573ffffffffffffffffffffffffffffffffffffffff169060200190929190803573ffffffffffffffffffffffffffffffffffffffff1690602001909291908035906020019064010000000081111561031e57600080fd5b82018360208201111561033057600080fd5b8035906020019184602083028401116401000000008311171561035257600080fd5b90919293919293908035906020019064010000000081111561037357600080fd5b82018360208201111561038557600080fd5b803590602001918460208302840111640100000000831117156103a757600080fd5b9091929391929390803590602001906401000000008111156103c857600080fd5b8201836020820111156103da57600080fd5b803590602001918460018302840111640100000000831117156103fc57600080fd5b90919293919293905050506111f4565b005b6104af6004803603606081101561042457600080fd5b81019080803590602001909291908035906020019064010000000081111561044b57600080fd5b82018360208201111561045d57600080fd5b8035906020019184600183028401116401000000008311171561047f57600080fd5b9091929391929390803573ffffffffffffffffffffffffffffffffffffffff169060200190929190505050611790565b005b610507600480360360608110156104c757600080fd5b810190808035906020019092919080359060200190929190803573ffffffffffffffffffffffffffffffffffffffff1690602001909291905050506118f7565b005b6105d56004803603604081101561051f57600080fd5b810190808035906020019064010000000081111561053c57600080fd5b82018360208201111561054e57600080fd5b8035906020019184602083028401116401000000008311171561057057600080fd5b90919293919293908035906020019064010000000081111561059157600080fd5b8201836020820111156105a357600080fd5b803590602001918460208302840111640100000000831117156105c557600080fd5b9091929391929390505050611c6c565b6040518080602001828103825283818151815260200191508051906020019060200280838360005b838110156106185780820151818401526020810190506105fd565b505050509050019250505060405180910390f35b6107226004803603608081101561064257600080fd5b81019080803590602001909291908035906020019064010000000081111561066957600080fd5b82018360208201111561067b57600080fd5b8035906020019184600183028401116401000000008311171561069d57600080fd5b9091929391929390803590602001906401000000008111156106be57600080fd5b8201836020820111156106d057600080fd5b803590602001918460018302840111640100000000831117156106f257600080fd5b9091929391929390803573ffffffffffffffffffffffffffffffffffffffff169060200190929190505050611d82565b6040518082815260200191505060405180910390f35b610883600480360360a081101561074e57600080fd5b81019080803590602001909291908035906020019064010000000081111561077557600080fd5b82018360208201111561078757600080fd5b803590602001918460018302840111640100000000831117156107a957600080fd5b9091929391929390803590602001906401000000008111156107ca57600080fd5b8201836020820111156107dc57600080fd5b803590602001918460018302840111640100000000831117156107fe57600080fd5b90919293919293908035906020019064010000000081111561081f57600080fd5b82018360208201111561083157600080fd5b8035906020019184600183028401116401000000008311171561085357600080fd5b9091929391929390803573ffffffffffffffffffffffffffffffffffffffff1690602001909291905050506120f1565b005b6109266004803603606081101561089b57600080fd5b8101908080359060200190929190803590602001906401000000008111156108c257600080fd5b8201836020820111156108d457600080fd5b803590602001918460018302840111640100000000831117156108f657600080fd5b9091929391929390803573ffffffffffffffffffffffffffffffffffffffff16906020019092919050505061236c565b005b6109546004803603602081101561093e57600080fd5b81019080803590602001909291905050506124d3565b005b610af6600480360360c081101561096c57600080fd5b810190808035906020019064010000000081111561098957600080fd5b82018360208201111561099b57600080fd5b803590602001918460208302840111640100000000831117156109bd57600080fd5b9091929391929390803590602001906401000000008111156109de57600080fd5b8201836020820111156109f057600080fd5b80359060200191846020830284011164010000000083111715610a1257600080fd5b90919293919293908035906020019092919080359060200190640100000000811115610a3d57600080fd5b820183602082011115610a4f57600080fd5b80359060200191846001830284011164010000000083111715610a7157600080fd5b9091929391929390803573ffffffffffffffffffffffffffffffffffffffff16906020019092919080359060200190640100000000811115610ab257600080fd5b820183602082011115610ac457600080fd5b80359060200191846001830284011164010000000083111715610ae657600080fd5b9091929391929390505050612698565b6040518082815260200191505060405180910390f35b610b5a60048036036040811015610b2257600080fd5b81019080803573ffffffffffffffffffffffffffffffffffffffff169060200190929190803515159060200190929190505050612f4d565b005b610bfd60048036036060811015610b7257600080fd5b810190808035906020019092919080359060200190640100000000811115610b9957600080fd5b820183602082011115610bab57600080fd5b80359060200191846001830284011164010000000083111715610bcd57600080fd5b9091929391929390803573ffffffffffffffffffffffffffffffffffffffff16906020019092919050505061304e565b005b610c076131b5565b6040518082815260200191505060405180910390f35b610c6960048036036040811015610c3357600080fd5b8101908080359060200190929190803573ffffffffffffffffffffffffffffffffffffffff1690602001909291905050506131bb565b604051808215151515815260200191505060405180910390f35b610ce560048036036040811015610c9957600080fd5b81019080803573ffffffffffffffffffffffffffffffffffffffff169060200190929190803573ffffffffffffffffffffffffffffffffffffffff1690602001909291905050506131ea565b604051808215151515815260200191505060405180910390f35b610dca600480360360a0811015610d1557600080fd5b81019080803573ffffffffffffffffffffffffffffffffffffffff169060200190929190803573ffffffffffffffffffffffffffffffffffffffff169060200190929190803590602001909291908035906020019092919080359060200190640100000000811115610d8657600080fd5b820183602082011115610d9857600080fd5b80359060200191846001830284011164010000000083111715610dba57600080fd5b909192939192939050505061327e565b005b610e1860048036036040811015610de257600080fd5b8101908080359060200190929190803573ffffffffffffffffffffffffffffffffffffffff1690602001909291905050506136aa565b005b600080600083815260200190815260200160002060008473ffffffffffffffffffffffffffffffffffffffff1673ffffffffffffffffffffffffffffffffffffffff16815260200190815260200160002054905092915050565b6000630e89341c60e01b7bffffffffffffffffffffffffffffffffffffffffffffffffffffffff1916827bffffffffffffffffffffffffffffffffffffffffffffffffffffffff19161415610ecc5760019050610ed8565b610ed582613870565b90505b919050565b60006002600084815260200190815260200160002060008373ffffffffffffffffffffffffffffffffffffffff1673ffffffffffffffffffffffffffffffffffffffff16815260200190815260200160002060009054906101000a900460ff16905092915050565b81600115156002600083815260200190815260200160002060003373ffffffffffffffffffffffffffffffffffffffff1673ffffffffffffffffffffffffffffffffffffffff16815260200190815260200160002060009054906101000a900460ff1615151461101d576040517f08c379a000000000000000000000000000000000000000000000000000000000815260040180806020018281038252601c8152602001807f4f6e6c7920636f6e74726f6c6c657273206d617920646f20746869730000000081525060200191505060405180910390fd5b823373ffffffffffffffffffffffffffffffffffffffff167f4f98129815c1f5bcf4492ae1a6bd7f06085d394c6ff03877f69b8359b487209b6040518080602001828103825260078152602001807f72656d6f7665640000000000000000000000000000000000000000000000000081525060200191505060405180910390a3828273ffffffffffffffffffffffffffffffffffffffff167f4f98129815c1f5bcf4492ae1a6bd7f06085d394c6ff03877f69b8359b487209b6040518080602001828103825260058152602001807f616464656400000000000000000000000000000000000000000000000000000081525060200191505060405180910390a360016002600085815260200190815260200160002060008473ffffffffffffffffffffffffffffffffffffffff1673ffffffffffffffffffffffffffffffffffffffff16815260200190815260200160002060006101000a81548160ff02191690831515021790555060006002600085815260200190815260200160002060003373ffffffffffffffffffffffffffffffffffffffff1673ffffffffffffffffffffffffffffffffffffffff16815260200190815260200160002060006101000a81548160ff021916908315150217905550505050565b600073ffffffffffffffffffffffffffffffffffffffff168773ffffffffffffffffffffffffffffffffffffffff16141561127a576040517f08c379a0000000000000000000000000000000000000000000000000000000008152600401808060200182810382526025815260200180613e436025913960400191505060405180910390fd5b8383905086869050146112d8576040517f08c379a0000000000000000000000000000000000000000000000000000000008152600401808060200182810382526029815260200180613f096029913960400191505060405180910390fd5b3373ffffffffffffffffffffffffffffffffffffffff168873ffffffffffffffffffffffffffffffffffffffff16148061139f575060011515600160008a73ffffffffffffffffffffffffffffffffffffffff1673ffffffffffffffffffffffffffffffffffffffff16815260200190815260200160002060003373ffffffffffffffffffffffffffffffffffffffff1673ffffffffffffffffffffffffffffffffffffffff16815260200190815260200160002060009054906101000a900460ff161515145b6113f4576040517f08c379a000000000000000000000000000000000000000000000000000000000815260040180806020018281038252602f815260200180613e68602f913960400191505060405180910390fd5b60008090505b868690508110156115aa57600087878381811061141357fe5b905060200201359050600086868481811061142a57fe5b9050602002013590506114958160008085815260200190815260200160002060008e73ffffffffffffffffffffffffffffffffffffffff1673ffffffffffffffffffffffffffffffffffffffff1681526020019081526020016000205461392190919063ffffffff16565b60008084815260200190815260200160002060008d73ffffffffffffffffffffffffffffffffffffffff1673ffffffffffffffffffffffffffffffffffffffff1681526020019081526020016000208190555061154a60008084815260200190815260200160002060008c73ffffffffffffffffffffffffffffffffffffffff1673ffffffffffffffffffffffffffffffffffffffff168152602001908152602001600020548261393890919063ffffffff16565b60008084815260200190815260200160002060008c73ffffffffffffffffffffffffffffffffffffffff1673ffffffffffffffffffffffffffffffffffffffff1681526020019081526020016000208190555050508060010190506113fa565b508673ffffffffffffffffffffffffffffffffffffffff168873ffffffffffffffffffffffffffffffffffffffff163373ffffffffffffffffffffffffffffffffffffffff167f4a39dc06d4c0dbc64b70af90fd698a233a518aa5d07e595d983b8c0526c8f7fb898989896040518080602001806020018381038352878782818152602001925060200280828437600081840152601f19601f8201169050808301925050508381038252858582818152602001925060200280828437600081840152601f19601f820116905080830192505050965050505050505060405180910390a46116ac8773ffffffffffffffffffffffffffffffffffffffff16613952565b1561178657611785338989898980806020026020016040519081016040528093929190818152602001838360200280828437600081840152601f19601f82011690508083019250505050505050888880806020026020016040519081016040528093929190818152602001838360200280828437600081840152601f19601f8201169050808301925050505050505087878080601f016020809104026020016040519081016040528093929190818152602001838380828437600081840152601f19601f82011690508083019250505050505050613965565b5b5050505050505050565b83600115156002600083815260200190815260200160002060003373ffffffffffffffffffffffffffffffffffffffff1673ffffffffffffffffffffffffffffffffffffffff16815260200190815260200160002060009054906101000a900460ff16151514611868576040517f08c379a000000000000000000000000000000000000000000000000000000000815260040180806020018281038252601c8152602001807f4f6e6c7920636f6e74726f6c6c657273206d617920646f20746869730000000081525060200191505060405180910390fd5b60008484905011156118f0578173ffffffffffffffffffffffffffffffffffffffff16857fb330ea26b663c926a197675228646bb719f91e1aa1ec9a1821da0713527b378f868660405180806020018281038252848482818152602001925080828437600081840152601f19601f820116905080830192505050935050505060405180910390a35b5050505050565b82600115156002600083815260200190815260200160002060003373ffffffffffffffffffffffffffffffffffffffff1673ffffffffffffffffffffffffffffffffffffffff16815260200190815260200160002060009054906101000a900460ff161515146119cf576040517f08c379a000000000000000000000000000000000000000000000000000000000815260040180806020018281038252601c8152602001807f4f6e6c7920636f6e74726f6c6c657273206d617920646f20746869730000000081525060200191505060405180910390fd5b8260008086815260200190815260200160002060008473ffffffffffffffffffffffffffffffffffffffff1673ffffffffffffffffffffffffffffffffffffffff168152602001908152602001600020541015611a77576040517f08c379a0000000000000000000000000000000000000000000000000000000008152600401808060200182810382526036815260200180613f6b6036913960400191505060405180910390fd5b611ad98360008087815260200190815260200160002060008573ffffffffffffffffffffffffffffffffffffffff1673ffffffffffffffffffffffffffffffffffffffff1681526020019081526020016000205461392190919063ffffffff16565b60008086815260200190815260200160002060008473ffffffffffffffffffffffffffffffffffffffff1673ffffffffffffffffffffffffffffffffffffffff16815260200190815260200160002081905550611b8e60008086815260200190815260200160002060008073ffffffffffffffffffffffffffffffffffffffff1673ffffffffffffffffffffffffffffffffffffffff168152602001908152602001600020548461393890919063ffffffff16565b60008086815260200190815260200160002060008073ffffffffffffffffffffffffffffffffffffffff1673ffffffffffffffffffffffffffffffffffffffff16815260200190815260200160002081905550600073ffffffffffffffffffffffffffffffffffffffff168273ffffffffffffffffffffffffffffffffffffffff163373ffffffffffffffffffffffffffffffffffffffff167fc3d58168c5ae7397731d063d5bbf3d657854427343f4c083240f7aacaa2d0f628787604051808381526020018281526020019250505060405180910390a450505050565b6060828290508585905014611c8057600080fd5b606085859050604051908082528060200260200182016040528015611cb45781602001602082028038833980820191505090505b50905060008090505b86869050811015611d7557600080868684818110611cd757fe5b9050602002013581526020019081526020016000206000888884818110611cfa57fe5b9050602002013573ffffffffffffffffffffffffffffffffffffffff1673ffffffffffffffffffffffffffffffffffffffff1673ffffffffffffffffffffffffffffffffffffffff16815260200190815260200160002054828281518110611d5e57fe5b602002602001018181525050806001019050611cbd565b5080915050949350505050565b6000600360008154600101919050819055905060016002600083815260200190815260200160002060003373ffffffffffffffffffffffffffffffffffffffff1673ffffffffffffffffffffffffffffffffffffffff16815260200190815260200160002060006101000a81548160ff021916908315150217905550803373ffffffffffffffffffffffffffffffffffffffff167f4f98129815c1f5bcf4492ae1a6bd7f06085d394c6ff03877f69b8359b487209b6040518080602001828103825260058152602001807f616464656400000000000000000000000000000000000000000000000000000081525060200191505060405180910390a38660008083815260200190815260200160002060003373ffffffffffffffffffffffffffffffffffffffff1673ffffffffffffffffffffffffffffffffffffffff168152602001908152602001600020819055508173ffffffffffffffffffffffffffffffffffffffff16600073ffffffffffffffffffffffffffffffffffffffff163373ffffffffffffffffffffffffffffffffffffffff167fc3d58168c5ae7397731d063d5bbf3d657854427343f4c083240f7aacaa2d0f62848b604051808381526020018281526020019250505060405180910390a46000868690501115611fdf578173ffffffffffffffffffffffffffffffffffffffff16817f559172fb31f7ef36dda8e44c48e5e5200be5e7ddb0637fc325dc3d877dd5032a888860405180806020018281038252848482818152602001925080828437600081840152601f19601f820116905080830192505050935050505060405180910390a35b6000848490501115612067578173ffffffffffffffffffffffffffffffffffffffff16817fb330ea26b663c926a197675228646bb719f91e1aa1ec9a1821da0713527b378f868660405180806020018281038252848482818152602001925080828437600081840152601f19601f820116905080830192505050935050505060405180910390a35b8173ffffffffffffffffffffffffffffffffffffffff16817fcdacca10089be16361c899070d644d01fdcef0eb154d91fd7005d9e448a562506040518080602001828103825260078152602001807f637265617465640000000000000000000000000000000000000000000000000081525060200191505060405180910390a39695505050505050565b87600115156002600083815260200190815260200160002060003373ffffffffffffffffffffffffffffffffffffffff1673ffffffffffffffffffffffffffffffffffffffff16815260200190815260200160002060009054906101000a900460ff161515146121c9576040517f08c379a000000000000000000000000000000000000000000000000000000000815260040180806020018281038252601c8152602001807f4f6e6c7920636f6e74726f6c6c657273206d617920646f20746869730000000081525060200191505060405180910390fd5b6000888890501115612251578173ffffffffffffffffffffffffffffffffffffffff16897f559172fb31f7ef36dda8e44c48e5e5200be5e7ddb0637fc325dc3d877dd5032a8a8a60405180806020018281038252848482818152602001925080828437600081840152601f19601f820116905080830192505050935050505060405180910390a35b60008686905011156122d9578173ffffffffffffffffffffffffffffffffffffffff16897fcdacca10089be16361c899070d644d01fdcef0eb154d91fd7005d9e448a56250888860405180806020018281038252848482818152602001925080828437600081840152601f19601f820116905080830192505050935050505060405180910390a35b6000848490501115612361578173ffffffffffffffffffffffffffffffffffffffff16897fb330ea26b663c926a197675228646bb719f91e1aa1ec9a1821da0713527b378f868660405180806020018281038252848482818152602001925080828437600081840152601f19601f820116905080830192505050935050505060405180910390a35b505050505050505050565b83600115156002600083815260200190815260200160002060003373ffffffffffffffffffffffffffffffffffffffff1673ffffffffffffffffffffffffffffffffffffffff16815260200190815260200160002060009054906101000a900460ff16151514612444576040517f08c379a000000000000000000000000000000000000000000000000000000000815260040180806020018281038252601c8152602001807f4f6e6c7920636f6e74726f6c6c657273206d617920646f20746869730000000081525060200191505060405180910390fd5b60008484905011156124cc578173ffffffffffffffffffffffffffffffffffffffff16857fcdacca10089be16361c899070d644d01fdcef0eb154d91fd7005d9e448a56250868660405180806020018281038252848482818152602001925080828437600081840152601f19601f820116905080830192505050935050505060405180910390a35b5050505050565b80600115156002600083815260200190815260200160002060003373ffffffffffffffffffffffffffffffffffffffff1673ffffffffffffffffffffffffffffffffffffffff16815260200190815260200160002060009054906101000a900460ff161515146125ab576040517f08c379a000000000000000000000000000000000000000000000000000000000815260040180806020018281038252601c8152602001807f4f6e6c7920636f6e74726f6c6c657273206d617920646f20746869730000000081525060200191505060405180910390fd5b813373ffffffffffffffffffffffffffffffffffffffff167f4f98129815c1f5bcf4492ae1a6bd7f06085d394c6ff03877f69b8359b487209b6040518080602001828103825260078152602001807f72656d6f7665640000000000000000000000000000000000000000000000000081525060200191505060405180910390a360006002600084815260200190815260200160002060003373ffffffffffffffffffffffffffffffffffffffff1673ffffffffffffffffffffffffffffffffffffffff16815260200190815260200160002060006101000a81548160ff0219169083151502179055505050565b6000888890508b8b9050146126f8576040517f08c379a000000000000000000000000000000000000000000000000000000000815260040180806020018281038252603d815260200180613e06603d913960400191505060405180910390fd5b60008090505b8b8b90508110156128cb5789898281811061271557fe5b905060200201356000808e8e8581811061272b57fe5b90506020020135815260200190815260200160002060008773ffffffffffffffffffffffffffffffffffffffff1673ffffffffffffffffffffffffffffffffffffffff1681526020019081526020016000205410156127f2576040517f08c379a000000000000000000000000000000000000000000000000000000000815260040180806020018281038252601a8152602001807f4d697373696e672066756e647320666f72206372616674696e6700000000000081525060200191505060405180910390fd5b60011515600260008e8e8581811061280657fe5b90506020020135815260200190815260200160002060003373ffffffffffffffffffffffffffffffffffffffff1673ffffffffffffffffffffffffffffffffffffffff16815260200190815260200160002060009054906101000a900460ff161515146128be576040517f08c379a0000000000000000000000000000000000000000000000000000000008152600401808060200182810382526034815260200180613ed56034913960400191505060405180910390fd5b80806001019150506126fe565b5060008090505b8b8b9050811015612ac0576129638a8a838181106128ec57fe5b905060200201356000808f8f8681811061290257fe5b90506020020135815260200190815260200160002060008873ffffffffffffffffffffffffffffffffffffffff1673ffffffffffffffffffffffffffffffffffffffff1681526020019081526020016000205461392190919063ffffffff16565b6000808e8e8581811061297257fe5b90506020020135815260200190815260200160002060008773ffffffffffffffffffffffffffffffffffffffff1673ffffffffffffffffffffffffffffffffffffffff16815260200190815260200160002081905550612a4e6000808e8e858181106129da57fe5b90506020020135815260200190815260200160002060008073ffffffffffffffffffffffffffffffffffffffff1673ffffffffffffffffffffffffffffffffffffffff168152602001908152602001600020548b8b84818110612a3957fe5b9050602002013561393890919063ffffffff16565b6000808e8e85818110612a5d57fe5b90506020020135815260200190815260200160002060008073ffffffffffffffffffffffffffffffffffffffff1673ffffffffffffffffffffffffffffffffffffffff1681526020019081526020016000208190555080806001019150506128d2565b50600073ffffffffffffffffffffffffffffffffffffffff168473ffffffffffffffffffffffffffffffffffffffff163373ffffffffffffffffffffffffffffffffffffffff167f4a39dc06d4c0dbc64b70af90fd698a233a518aa5d07e595d983b8c0526c8f7fb8e8e8e8e6040518080602001806020018381038352878782818152602001925060200280828437600081840152601f19601f8201169050808301925050508381038252858582818152602001925060200280828437600081840152601f19601f820116905080830192505050965050505050505060405180910390a4600360008154600101919050819055905060016002600083815260200190815260200160002060003373ffffffffffffffffffffffffffffffffffffffff1673ffffffffffffffffffffffffffffffffffffffff16815260200190815260200160002060006101000a81548160ff021916908315150217905550803373ffffffffffffffffffffffffffffffffffffffff167f4f98129815c1f5bcf4492ae1a6bd7f06085d394c6ff03877f69b8359b487209b6040518080602001828103825260058152602001807f616464656400000000000000000000000000000000000000000000000000000081525060200191505060405180910390a38660008083815260200190815260200160002060008673ffffffffffffffffffffffffffffffffffffffff1673ffffffffffffffffffffffffffffffffffffffff168152602001908152602001600020819055508373ffffffffffffffffffffffffffffffffffffffff16817f517359248e21bdc3f27618171de51bc3c62d50e43ca95248d2e45ec52594e0558d8d8d8d8d6040518080602001806020018481526020018381038352888882818152602001925060200280828437600081840152601f19601f8201169050808301925050508381038252868682818152602001925060200280828437600081840152601f19601f82011690508083019250505097505050505050505060405180910390a36000868690501115612e37578373ffffffffffffffffffffffffffffffffffffffff16817f559172fb31f7ef36dda8e44c48e5e5200be5e7ddb0637fc325dc3d877dd5032a888860405180806020018281038252848482818152602001925080828437600081840152601f19601f820116905080830192505050935050505060405180910390a35b6000838390501115612ebf578373ffffffffffffffffffffffffffffffffffffffff16817fb330ea26b663c926a197675228646bb719f91e1aa1ec9a1821da0713527b378f858560405180806020018281038252848482818152602001925080828437600081840152601f19601f820116905080830192505050935050505060405180910390a35b8373ffffffffffffffffffffffffffffffffffffffff16817fcdacca10089be16361c899070d644d01fdcef0eb154d91fd7005d9e448a562506040518080602001828103825260078152602001807f637261667465640000000000000000000000000000000000000000000000000081525060200191505060405180910390a39a9950505050505050505050565b80600160003373ffffffffffffffffffffffffffffffffffffffff1673ffffffffffffffffffffffffffffffffffffffff16815260200190815260200160002060008473ffffffffffffffffffffffffffffffffffffffff1673ffffffffffffffffffffffffffffffffffffffff16815260200190815260200160002060006101000a81548160ff0219169083151502179055508173ffffffffffffffffffffffffffffffffffffffff163373ffffffffffffffffffffffffffffffffffffffff167f17307eab39ab6107e8899845ad3d59bd9653f200f220920489ca2b5937696c3183604051808215151515815260200191505060405180910390a35050565b83600115156002600083815260200190815260200160002060003373ffffffffffffffffffffffffffffffffffffffff1673ffffffffffffffffffffffffffffffffffffffff16815260200190815260200160002060009054906101000a900460ff16151514613126576040517f08c379a000000000000000000000000000000000000000000000000000000000815260040180806020018281038252601c8152602001807f4f6e6c7920636f6e74726f6c6c657273206d617920646f20746869730000000081525060200191505060405180910390fd5b60008484905011156131ae578173ffffffffffffffffffffffffffffffffffffffff16857f559172fb31f7ef36dda8e44c48e5e5200be5e7ddb0637fc325dc3d877dd5032a868660405180806020018281038252848482818152602001925080828437600081840152601f19601f820116905080830192505050935050505060405180910390a35b5050505050565b60035481565b60026020528160005260406000206020528060005260406000206000915091509054906101000a900460ff1681565b6000600160008473ffffffffffffffffffffffffffffffffffffffff1673ffffffffffffffffffffffffffffffffffffffff16815260200190815260200160002060008373ffffffffffffffffffffffffffffffffffffffff1673ffffffffffffffffffffffffffffffffffffffff16815260200190815260200160002060009054906101000a900460ff16905092915050565b600073ffffffffffffffffffffffffffffffffffffffff168573ffffffffffffffffffffffffffffffffffffffff161415613321576040517f08c379a00000000000000000000000000000000000000000000000000000000081526004018080602001828103825260158152602001807f5f746f206d757374206265206e6f6e2d7a65726f2e000000000000000000000081525060200191505060405180910390fd5b3373ffffffffffffffffffffffffffffffffffffffff168673ffffffffffffffffffffffffffffffffffffffff1614806133e8575060011515600160008873ffffffffffffffffffffffffffffffffffffffff1673ffffffffffffffffffffffffffffffffffffffff16815260200190815260200160002060003373ffffffffffffffffffffffffffffffffffffffff1673ffffffffffffffffffffffffffffffffffffffff16815260200190815260200160002060009054906101000a900460ff161515145b61343d576040517f08c379a000000000000000000000000000000000000000000000000000000000815260040180806020018281038252602f815260200180613e68602f913960400191505060405180910390fd5b61349f8360008087815260200190815260200160002060008973ffffffffffffffffffffffffffffffffffffffff1673ffffffffffffffffffffffffffffffffffffffff1681526020019081526020016000205461392190919063ffffffff16565b60008086815260200190815260200160002060008873ffffffffffffffffffffffffffffffffffffffff1673ffffffffffffffffffffffffffffffffffffffff1681526020019081526020016000208190555061355460008086815260200190815260200160002060008773ffffffffffffffffffffffffffffffffffffffff1673ffffffffffffffffffffffffffffffffffffffff168152602001908152602001600020548461393890919063ffffffff16565b60008086815260200190815260200160002060008773ffffffffffffffffffffffffffffffffffffffff1673ffffffffffffffffffffffffffffffffffffffff168152602001908152602001600020819055508473ffffffffffffffffffffffffffffffffffffffff168673ffffffffffffffffffffffffffffffffffffffff163373ffffffffffffffffffffffffffffffffffffffff167fc3d58168c5ae7397731d063d5bbf3d657854427343f4c083240f7aacaa2d0f628787604051808381526020018281526020019250505060405180910390a461364a8573ffffffffffffffffffffffffffffffffffffffff16613952565b156136a2576136a1338787878787878080601f016020809104026020016040519081016040528093929190818152602001838380828437600081840152601f19601f82011690508083019250505050505050613bf6565b5b505050505050565b81600115156002600083815260200190815260200160002060003373ffffffffffffffffffffffffffffffffffffffff1673ffffffffffffffffffffffffffffffffffffffff16815260200190815260200160002060009054906101000a900460ff16151514613782576040517f08c379a000000000000000000000000000000000000000000000000000000000815260040180806020018281038252601c8152602001807f4f6e6c7920636f6e74726f6c6c657273206d617920646f20746869730000000081525060200191505060405180910390fd5b828273ffffffffffffffffffffffffffffffffffffffff167f4f98129815c1f5bcf4492ae1a6bd7f06085d394c6ff03877f69b8359b487209b6040518080602001828103825260058152602001807f616464656400000000000000000000000000000000000000000000000000000081525060200191505060405180910390a360016002600085815260200190815260200160002060008473ffffffffffffffffffffffffffffffffffffffff1673ffffffffffffffffffffffffffffffffffffffff16815260200190815260200160002060006101000a81548160ff021916908315150217905550505050565b60006301ffc9a760e01b7bffffffffffffffffffffffffffffffffffffffffffffffffffffffff1916827bffffffffffffffffffffffffffffffffffffffffffffffffffffffff19161480613909575063d9b67a2660e01b7bffffffffffffffffffffffffffffffffffffffffffffffffffffffff1916827bffffffffffffffffffffffffffffffffffffffffffffffffffffffff1916145b15613917576001905061391c565b600090505b919050565b60008282111561392d57fe5b818303905092915050565b600081830190508281101561394957fe5b80905092915050565b600080823b905060008111915050919050565b63bc197c8160e01b7bffffffffffffffffffffffffffffffffffffffffffffffffffffffff19168473ffffffffffffffffffffffffffffffffffffffff1663bc197c8188888787876040518663ffffffff1660e01b8152600401808673ffffffffffffffffffffffffffffffffffffffff1673ffffffffffffffffffffffffffffffffffffffff1681526020018573ffffffffffffffffffffffffffffffffffffffff1673ffffffffffffffffffffffffffffffffffffffff168152602001806020018060200180602001848103845287818151815260200191508051906020019060200280838360005b83811015613a6b578082015181840152602081019050613a50565b50505050905001848103835286818151815260200191508051906020019060200280838360005b83811015613aad578082015181840152602081019050613a92565b50505050905001848103825285818151815260200191508051906020019080838360005b83811015613aec578082015181840152602081019050613ad1565b50505050905090810190601f168015613b195780820380516001836020036101000a031916815260200191505b5098505050505050505050602060405180830381600087803b158015613b3e57600080fd5b505af1158015613b52573d6000803e3d6000fd5b505050506040513d6020811015613b6857600080fd5b81019080805190602001909291905050507bffffffffffffffffffffffffffffffffffffffffffffffffffffffff191614613bee576040517f08c379a000000000000000000000000000000000000000000000000000000000815260040180806020018281038252603e815260200180613e97603e913960400191505060405180910390fd5b505050505050565b63f23a6e6160e01b7bffffffffffffffffffffffffffffffffffffffffffffffffffffffff19168473ffffffffffffffffffffffffffffffffffffffff1663f23a6e6188888787876040518663ffffffff1660e01b8152600401808673ffffffffffffffffffffffffffffffffffffffff1673ffffffffffffffffffffffffffffffffffffffff1681526020018573ffffffffffffffffffffffffffffffffffffffff1673ffffffffffffffffffffffffffffffffffffffff16815260200184815260200183815260200180602001828103825283818151815260200191508051906020019080838360005b83811015613cfd578082015181840152602081019050613ce2565b50505050905090810190601f168015613d2a5780820380516001836020036101000a031916815260200191505b509650505050505050602060405180830381600087803b158015613d4d57600080fd5b505af1158015613d61573d6000803e3d6000fd5b505050506040513d6020811015613d7757600080fd5b81019080805190602001909291905050507bffffffffffffffffffffffffffffffffffffffffffffffffffffffff191614613dfd576040517f08c379a0000000000000000000000000000000000000000000000000000000008152600401808060200182810382526039815260200180613f326039913960400191505060405180910390fd5b50505050505056fe4e756d626572206f6620696e7075742049647320616e64204e756d626572206f6620696e707574207175616e746974696573206e6f7420657175616c2e64657374696e6174696f6e2061646472657373206d757374206265206e6f6e2d7a65726f2e4e656564206f70657261746f7220617070726f76616c20666f7220337264207061727479207472616e73666572732e636f6e74726163742072657475726e656420616e20756e6b6e6f776e2076616c75652066726f6d206f6e45524331313535426174636852656365697665644d6573736167652073656e64657220646f6573206e6f74206861766520636f6e74726f6c206f76657220616c6c20746f6b656e735f69647320616e64205f76616c756573206172726179206c656e676874206d757374206d617463682e636f6e74726163742072657475726e656420616e20756e6b6e6f776e2076616c75652066726f6d206f6e455243313135355265636569766564537065636966696564206275726e207175616e74697479206578636565647320746865206f70657261746f7227732062616c616e6365a265627a7a723158201d5491815a12fd63a26109135a0b36ca6973e41ba5ae9087c6efc6d9b4a1814e64736f6c63430005100032",
  "source": "pragma solidity ^0.5.0;\n\nimport \"./ERC1155.sol\";\n\ncontract APTSC is ERC1155 {\n    event craftedToken(uint256[] _inputIds, uint256[] _inputQuantities, uint256 indexed _outputId, uint256 _outputQuantity, address indexed _actor);\n    event serialNumber(string _serialNumber, uint256 indexed _id, address indexed _actor);\n    event status(string _status, uint256 indexed _id, address indexed _actor);\n    event controllerUpdate(string _type, address indexed _updatedAddress, uint256 indexed _id);\n    // string --> bytes32\n    bytes4 constant private INTERFACE_SIGNATURE_URI = 0x0e89341c;\n\n    // id => account => is controller\n    mapping (uint256 => mapping(address => bool)) public controllers;\n\n    // A nonce to ensure we have a unique id each time we create or craft.\n    uint256 public nonce;\n\n    modifier controllerOnly(uint256 _id) {\n        require(controllers[_id][msg.sender] == true, \"Only controllers may do this\");\n        _;\n    }\n\n    modifier allAvailable(uint256[] memory _inputIds, uint256[] memory _inputQuantities, address operator){\n      //check matching input array length\n      require(_inputIds.length == _inputQuantities.length, \"Number of input Ids and Number of input quantities not equal.\");\n      //check balance of operator for each token\n      for (uint i = 0; i < _inputIds.length; i++){\n        require(balances[_inputIds[i]][operator]>=_inputQuantities[i], \"Missing funds for crafting\");\n      }\n      _;\n    }\n\n/**\n  @notice Remained from sample implementation for ERC1155 compliance\n  @notice Return true if the the contract supports the specified interface, else refers to the parent contract.\n*/\n    function supportsInterface(bytes4 _interfaceId)\n    public view\n    returns (bool) {\n        if (_interfaceId == INTERFACE_SIGNATURE_URI) {\n            return true;\n        } else {\n            return super.supportsInterface(_interfaceId);\n        }\n    }\n/*\n\n    function getOwners(uint256 _id)\n    public view\n    returns (address[] memory){\n      address[] memory owners;\n      for (uint i=0; i<participants.length; i++){\n        if (balances[_id][participants[i]]>0){\n          owners[i] = address[i];\n        }\n      }\n      return owners;\n    }\n  */\n\n/***********************************************************************************************************************************************\nSECTION: TOKEN EXISTENCE MANAGEMENT\n________________________________________________________________________________________________________________________________________________\nDESCRIPTION: This section contains functions for creating, crafting and burning tokens.\n***********************************************************************************************************************************************/\n\n\n/**\n    @notice Creates a specified `_initialSupply` of new token with the next available `_id` and gives it to the message sender.\n    @notice Token control is given to the message sender.\n    @notice Emits a specified `_uri`, `_serialNumber`, and a generic \"created\" status as well as information about the creation process.\n    No conditions apply.\n    After the above conditions are met, this function MUST check if `_to` is a smart contract (e.g. code size > 0).\n    If so, it MUST call `onERC1155Received` on `_to` and act appropriately (see \"Safe Transfer Rules\" section of the standard).\n    @param _initialSupply   Amount of the new token\n    @param _uri             Link to the parts production data\n    @param _serialNumber    The parts serial number\n    @param _actor              The account of the entity executing the production process\n*/\n    function create(uint256 _initialSupply, string calldata _uri, string calldata _serialNumber, address _actor) external returns(uint256 _id) {\n        _id = ++nonce;\n        controllers[_id][msg.sender] = true;\n        emit controllerUpdate(\"added\", msg.sender, _id);\n        balances[_id][msg.sender] = _initialSupply;\n        emit TransferSingle(msg.sender, address(0x0), _actor, _id, _initialSupply);\n        if (bytes(_uri).length > 0)\n            emit URI(_uri, _id, _actor);\n        if (bytes(_serialNumber).length > 0)\n            emit serialNumber(_serialNumber, _id, _actor);\n            emit status(\"created\", _id, _actor);\n    }\n\n/**\n    @notice Burns the `_inputQuantities` of the `_inputIds` in the `operator` account.  Token control is given to the message sender.\n    @notice Creates a specified `_outputInitialSupply` of a new token with the next available `_id` and gives it to the `operator`.\n    @notice The control over the token is assigned to the message sender.\n    @notice Emits a specified `_uri`, `_serialNumber`, and a generic \"crafted\" status as well as information about the crafting procedure.\n    MUST revert if number of input ids and number of specified input quantities are not equal.\n    MUST revert if operator does not have sufficient inventory for every input token.\n    MUST emit a craft event.\n    MUST emit a status event.\n    MUST emit a serialNumber event if the parts serial number is specified\n    MUST emit a URI event if a uri for part production information is specified.\n    After the above conditions are met, this function MUST check if `_to` is a smart contract (e.g. code size > 0).\n    If so, it MUST call `onERC1155Received` on `_to` and act appropriately (see \"Safe Transfer Rules\" section of the standard).\n    @param _inputIds              Array containing the IDs of all tokens that are used in the production of the new part\n    @param _inputQuantities       Array containing the Quantities of the input tokens in the same order as the _inputIds parameter\n    @param _outputInitialSupply   Amount of the new token\n    @param _uri                   Link to the parts production data\n    @param _serialNumber          The parts serial number\n    @param _actor              The account of the entity executing the production process\n*/\n    function craft(uint256[] calldata _inputIds, uint256[] calldata _inputQuantities, uint256 _outputInitialSupply, string calldata _uri, address _actor, string calldata _serialNumber)\n    external\n    returns(uint256 _id){\n      //check matching input arrays\n      require(_inputIds.length == _inputQuantities.length, \"Number of input Ids and Number of input quantities not equal.\");\n      //check token availability and control\n      for (uint i = 0; i < _inputIds.length; i++){\n        require(balances[_inputIds[i]][_actor]>=_inputQuantities[i],\"Missing funds for crafting\");\n        require(controllers[_inputIds[i]][msg.sender]==true, \"Message sender does not have control over all tokens\");\n      }\n      //burn tokens\n      for (uint i = 0; i < _inputIds.length; i++){\n        balances[_inputIds[i]][_actor]=balances[_inputIds[i]][_actor].sub(_inputQuantities[i]);\n        balances[_inputIds[i]][address(0x0)]=_inputQuantities[i].add(balances[_inputIds[i]][address(0x0)]);\n      }\n      emit TransferBatch(msg.sender, _actor, address(0x0),_inputIds, _inputQuantities);\n      //create token\n      _id = ++nonce;\n      controllers[_id][msg.sender] = true;\n      emit controllerUpdate(\"added\", msg.sender, _id);\n      balances[_id][_actor] = _outputInitialSupply;\n      // emit craft event\n      emit craftedToken(_inputIds, _inputQuantities, _id, _outputInitialSupply, _actor);\n      if (bytes(_uri).length > 0)\n          emit URI(_uri, _id, _actor);\n      if (bytes(_serialNumber).length > 0)\n        emit serialNumber(_serialNumber, _id, _actor);\n      emit status(\"crafted\", _id, _actor);\n    }\n\n/**\n    @notice Burns the specified `_quantity` of a token with an `_id` from an `_actor` account.\n    MUST revert if sender is not a controller for the token.\n    MUST revert if operator does not have the sufficient balance of that token.\n    @param _id        The token ID.\n    @param _quantity  The quantity to be burned.\n    @param _actor  The account of the entity executing the burning process\n*/\n    function burnTokenBalance(uint _id, uint _quantity, address _actor)\n    external controllerOnly(_id){\n      require(balances[_id][_actor]>=_quantity, \"Specified burn quantity exceeds the operator's balance\");\n      balances[_id][_actor] = balances[_id][_actor].sub(_quantity);\n      balances[_id][address(0x0)] = _quantity.add(balances[_id][address(0x0)]);\n      emit TransferSingle(msg.sender, _actor, address(0x0),_id, _quantity);\n    }\n\n\n/***********************************************************************************************************************************************\nSECTION: METADATA UPDATES\n________________________________________________________________________________________________________________________________________________\nDESCRIPTION: This section contains functions for updating token metadata through events.\n***********************************************************************************************************************************************/\n\n/**\n    @notice Updates the URI of a part by emitting a URI event with a specified _URI for the part's token _id.\n    MUST revert if sender is not a controller for the token.\n    MUST emit a URI event if the URI length is <0.\n    @param _id            The token ID.\n    @param _URI           The part's new URI.\n    @param _actor      The account of the entity executing the production process\n*/\n    function newURI(uint256 _id, string calldata _URI, address _actor)\n    external controllerOnly(_id){\n      if (bytes(_URI).length > 0)\n          emit URI(_URI, _id, _actor);\n    }\n\n/**\n    @notice Updates the status of a part by emitting a status event with a specified _status for the part's token _id.\n    MUST revert if sender is not a controller for the token.\n    MUST emit a status event if the status length is <0.\n    @param _id        The token ID.\n    @param _status    The part's new status.\n    @param _actor  The account of the entity executing the production process\n*/\n    function newStatus(uint256 _id, string calldata _status, address _actor)\n    external controllerOnly(_id){\n      if (bytes(_status).length > 0)\n          emit status(_status, _id, _actor);\n    }\n\n/**\n    @notice Updates the serial number of a part by emitting a serialNumber event with a specified _serialNumber for the part's token _id.\n    MUST revert if sender is not a controller for the token.\n    MUST emit a serialNumber event if the _serialNumber length is <0.\n    @param _id            The token ID.\n    @param _serialNumber  The part's new serial number.\n    @param _actor      The account of the entity executing the production process\n*/\n    function newSerialNumber(uint256 _id, string calldata _serialNumber, address _actor)\n    external controllerOnly(_id){\n      if (bytes(_serialNumber).length > 0)\n          emit serialNumber(_serialNumber, _id, _actor);\n    }\n/**\n    @notice Combines all three metadata functions.\n    MUST revert if sender is not a controller for the token.\n    MUST emit a URI event if the _URI length is <0.\n    MUST emit a status event if the _status length is <0.\n    MUST emit a serialNumber event if the _serialNumber length is <0.\n    @param _id            The token ID.\n    @param _URI           The part's new URI\n    @param _status        The part's new status\n    @param _serialNumber  The part's new serial number.\n    @param _actor      The account of the entity executing the production process\n*/\n    function updateMetadata(uint256 _id, string calldata _URI, string calldata _status, string calldata _serialNumber, address _actor)\n    external controllerOnly(_id){\n      if (bytes(_URI).length > 0)\n          emit URI(_URI, _id, _actor);\n      if (bytes(_status).length > 0)\n          emit status(_status, _id, _actor);\n      if (bytes(_serialNumber).length > 0)\n          emit serialNumber(_serialNumber, _id, _actor);\n    }\n/***********************************************************************************************************************************************\nSECTION: TOKEN CONTROL\n________________________________________________________________________________________________________________________________________________\nDESCRIPTION: This section contains functions for managing token control.\n***********************************************************************************************************************************************/\n/**\n    @notice Returns whether a candidate is a controller of a token\n    @param _id              The token ID.\n    @param _candidate       The potential controller.\n*/\n    function isController(uint _id,address _candidate)\n    external view\n    returns (bool){\n      return controllers[_id][_candidate];\n    }\n\n/**\n    @notice Assigns control over a token to another account.\n    MUST revert if sender is not a controller for the token.\n    @param _id              The token ID.\n    @param _newController   The new token controller.\n*/\n    function addController(uint _id, address _newController)\n    external controllerOnly(_id){\n      emit controllerUpdate(\"added\", _newController, _id);\n      controllers[_id][_newController]=true;\n    }\n\n/**\n    @notice Strips control over a token from the sender account.\n    MUST revert if sender is not a controller for the token.\n    @param _id              The token ID.\n*/\n    function renounceControl(uint _id)\n    external controllerOnly(_id){\n      emit controllerUpdate(\"removed\", msg.sender, _id);\n      controllers[_id][msg.sender]=false;\n    }\n\n/**\n    @notice Assigns control over a token to another account and strips the senders account of the controlling rights.\n    MUST revert if sender is not a controller for the token.\n    @param _id              The token ID.\n    @param _newController   The new token controller.\n*/\n    function transferControl(uint _id, address _newController)\n    external controllerOnly(_id){\n      emit controllerUpdate(\"removed\", msg.sender, _id);\n      emit controllerUpdate(\"added\", _newController, _id);\n      controllers[_id][_newController]=true;\n      controllers[_id][msg.sender]=false;\n    }\n}\n",
  "sourcePath": "/home/conner/coding/Ethereum/Blockchain_Codes/DApp_vue/contracts/APTSC.sol",
  "compiler": {
    "name": "solc",
    "version": "0.5.16+commit.9c3226ce.Emscripten.clang"
  },
  "schemaVersion": "3.2.0",
  "updatedAt": "2020-10-03T19:12:03.243Z",
  "networkType": "ethereum",
  "devdoc": {
    "methods": {
      "addController(uint256,address)": {
        "params": {
          "_id": "The token ID.",
          "_newController": "The new token controller."
        }
      },
      "balanceOf(address,uint256)": {
        "params": {
          "_id": "ID of the Token",
          "_owner": "The address of the token holder"
        },
        "return": "The _owner's balance of the Token type requested"
      },
      "balanceOfBatch(address[],uint256[])": {
        "params": {
          "_ids": "ID of the Tokens",
          "_owners": "The addresses of the token holders"
        },
        "return": "The _owner's balance of the Token types requested (i.e. balance for each (owner, id) pair)"
      },
      "burnTokenBalance(uint256,uint256,address)": {
        "params": {
          "_actor": "The account of the entity executing the burning process",
          "_id": "The token ID.",
          "_quantity": "The quantity to be burned."
        }
      },
      "craft(uint256[],uint256[],uint256,string,address,string)": {
        "params": {
          "_actor": "The account of the entity executing the production process",
          "_inputIds": "Array containing the IDs of all tokens that are used in the production of the new part",
          "_inputQuantities": "Array containing the Quantities of the input tokens in the same order as the _inputIds parameter",
          "_outputInitialSupply": "Amount of the new token",
          "_serialNumber": "The parts serial number",
          "_uri": "Link to the parts production data"
        }
      },
      "create(uint256,string,string,address)": {
        "params": {
          "_actor": "The account of the entity executing the production process",
          "_initialSupply": "Amount of the new token",
          "_serialNumber": "The parts serial number",
          "_uri": "Link to the parts production data"
        }
      },
      "isApprovedForAll(address,address)": {
        "params": {
          "_operator": "Address of authorized operator",
          "_owner": "The owner of the Tokens"
        },
        "return": "True if the operator is approved, false if not"
      },
      "isController(uint256,address)": {
        "params": {
          "_candidate": "The potential controller.",
          "_id": "The token ID."
        }
      },
      "newSerialNumber(uint256,string,address)": {
        "params": {
          "_actor": "The account of the entity executing the production process",
          "_id": "The token ID.",
          "_serialNumber": "The part's new serial number."
        }
      },
      "newStatus(uint256,string,address)": {
        "params": {
          "_actor": "The account of the entity executing the production process",
          "_id": "The token ID.",
          "_status": "The part's new status."
        }
      },
      "newURI(uint256,string,address)": {
        "params": {
          "_URI": "The part's new URI.",
          "_actor": "The account of the entity executing the production process",
          "_id": "The token ID."
        }
      },
      "renounceControl(uint256)": {
        "params": {
          "_id": "The token ID."
        }
      },
      "safeBatchTransferFrom(address,address,uint256[],uint256[],bytes)": {
        "details": "Caller must be approved to manage the tokens being transferred out of the `_from` account (see \"Approval\" section of the standard). MUST revert if `_to` is the zero address. MUST revert if length of `_ids` is not the same as length of `_values`. MUST revert if any of the balance(s) of the holder(s) for token(s) in `_ids` is lower than the respective amount(s) in `_values` sent to the recipient. MUST revert on any other error. MUST emit `TransferSingle` or `TransferBatch` event(s) such that all the balance changes are reflected (see \"Safe Transfer Rules\" section of the standard). Balance changes and events MUST follow the ordering of the arrays (_ids[0]/_values[0] before _ids[1]/_values[1], etc). After the above conditions for the transfer(s) in the batch are met, this function MUST check if `_to` is a smart contract (e.g. code size > 0). If so, it MUST call the relevant `ERC1155TokenReceiver` hook(s) on `_to` and act appropriately (see \"Safe Transfer Rules\" section of the standard).",
        "params": {
          "_data": "Additional data with no specified format, MUST be sent unaltered in call to the `ERC1155TokenReceiver` hook(s) on `_to`",
          "_from": "Source address",
          "_ids": "IDs of each token type (order and length must match _values array)",
          "_to": "Target address",
          "_values": "Transfer amounts per token type (order and length must match _ids array)"
        }
      },
      "safeTransferFrom(address,address,uint256,uint256,bytes)": {
        "details": "Caller must be approved to manage the tokens being transferred out of the `_from` account (see \"Approval\" section of the standard). MUST revert if `_to` is the zero address. MUST revert if balance of holder for token `_id` is lower than the `_value` sent. MUST revert on any other error. MUST emit the `TransferSingle` event to reflect the balance change (see \"Safe Transfer Rules\" section of the standard). After the above conditions are met, this function MUST check if `_to` is a smart contract (e.g. code size > 0). If so, it MUST call `onERC1155Received` on `_to` and act appropriately (see \"Safe Transfer Rules\" section of the standard).",
        "params": {
          "_data": "Additional data with no specified format, MUST be sent unaltered in call to `onERC1155Received` on `_to`",
          "_from": "Source address",
          "_id": "ID of the token type",
          "_to": "Target address",
          "_value": "Transfer amount"
        }
      },
      "setApprovalForAll(address,bool)": {
        "details": "MUST emit the ApprovalForAll event on success.",
        "params": {
          "_approved": "True if the operator is approved, false to revoke approval",
          "_operator": "Address to add to the set of authorized operators"
        }
      },
      "transferControl(uint256,address)": {
        "params": {
          "_id": "The token ID.",
          "_newController": "The new token controller."
        }
      },
      "updateMetadata(uint256,string,string,string,address)": {
        "params": {
          "_URI": "The part's new URI",
          "_actor": "The account of the entity executing the production process",
          "_id": "The token ID.",
          "_serialNumber": "The part's new serial number.",
          "_status": "The part's new status"
        }
      }
    }
  },
  "userdoc": {
    "methods": {
      "addController(uint256,address)": {
        "notice": "Assigns control over a token to another account. MUST revert if sender is not a controller for the token."
      },
      "balanceOf(address,uint256)": {
        "notice": "Get the balance of an account's Tokens."
      },
      "balanceOfBatch(address[],uint256[])": {
        "notice": "Get the balance of multiple account/token pairs"
      },
      "burnTokenBalance(uint256,uint256,address)": {
        "notice": "Burns the specified `_quantity` of a token with an `_id` from an `_actor` account. MUST revert if sender is not a controller for the token. MUST revert if operator does not have the sufficient balance of that token."
      },
      "craft(uint256[],uint256[],uint256,string,address,string)": {
        "notice": "Burns the `_inputQuantities` of the `_inputIds` in the `operator` account.  Token control is given to the message sender.Creates a specified `_outputInitialSupply` of a new token with the next available `_id` and gives it to the `operator`.The control over the token is assigned to the message sender.Emits a specified `_uri`, `_serialNumber`, and a generic \"crafted\" status as well as information about the crafting procedure. MUST revert if number of input ids and number of specified input quantities are not equal. MUST revert if operator does not have sufficient inventory for every input token. MUST emit a craft event. MUST emit a status event. MUST emit a serialNumber event if the parts serial number is specified MUST emit a URI event if a uri for part production information is specified. After the above conditions are met, this function MUST check if `_to` is a smart contract (e.g. code size > 0). If so, it MUST call `onERC1155Received` on `_to` and act appropriately (see \"Safe Transfer Rules\" section of the standard)."
      },
      "create(uint256,string,string,address)": {
        "notice": "Creates a specified `_initialSupply` of new token with the next available `_id` and gives it to the message sender.Token control is given to the message sender.Emits a specified `_uri`, `_serialNumber`, and a generic \"created\" status as well as information about the creation process. No conditions apply. After the above conditions are met, this function MUST check if `_to` is a smart contract (e.g. code size > 0). If so, it MUST call `onERC1155Received` on `_to` and act appropriately (see \"Safe Transfer Rules\" section of the standard)."
      },
      "isApprovedForAll(address,address)": {
        "notice": "Queries the approval status of an operator for a given owner."
      },
      "isController(uint256,address)": {
        "notice": "Returns whether a candidate is a controller of a token"
      },
      "newSerialNumber(uint256,string,address)": {
        "notice": "Updates the serial number of a part by emitting a serialNumber event with a specified _serialNumber for the part's token _id. MUST revert if sender is not a controller for the token. MUST emit a serialNumber event if the _serialNumber length is <0."
      },
      "newStatus(uint256,string,address)": {
        "notice": "Updates the status of a part by emitting a status event with a specified _status for the part's token _id. MUST revert if sender is not a controller for the token. MUST emit a status event if the status length is <0."
      },
      "newURI(uint256,string,address)": {
        "notice": "Updates the URI of a part by emitting a URI event with a specified _URI for the part's token _id. MUST revert if sender is not a controller for the token. MUST emit a URI event if the URI length is <0."
      },
      "renounceControl(uint256)": {
        "notice": "Strips control over a token from the sender account. MUST revert if sender is not a controller for the token."
      },
      "safeBatchTransferFrom(address,address,uint256[],uint256[],bytes)": {
        "notice": "Transfers `_values` amount(s) of `_ids` from the `_from` address to the `_to` address specified (with safety call)."
      },
      "safeTransferFrom(address,address,uint256,uint256,bytes)": {
        "notice": "Transfers `_value` amount of an `_id` from the `_from` address to the `_to` address specified (with safety call)."
      },
      "setApprovalForAll(address,bool)": {
        "notice": "Enable or disable approval for a third party (\"operator\") to manage all of the caller's tokens."
      },
      "supportsInterface(bytes4)": {
        "notice": "Remained from sample implementation for ERC1155 complianceReturn true if the the contract supports the specified interface, else refers to the parent contract."
      },
      "transferControl(uint256,address)": {
        "notice": "Assigns control over a token to another account and strips the senders account of the controlling rights. MUST revert if sender is not a controller for the token."
      },
      "updateMetadata(uint256,string,string,string,address)": {
        "notice": "Combines all three metadata functions. MUST revert if sender is not a controller for the token. MUST emit a URI event if the _URI length is <0. MUST emit a status event if the _status length is <0. MUST emit a serialNumber event if the _serialNumber length is <0."
      }
    }
  }
}