{
  "contractName": "ProxyBaseStorage",
  "abi": [
    {
      "constant": true,
      "inputs": [
        {
          "internalType": "bytes4",
          "name": "",
          "type": "bytes4"
        }
      ],
      "name": "delegates",
      "outputs": [
        {
          "internalType": "address",
          "name": "",
          "type": "address"
        }
      ],
      "payable": false,
      "stateMutability": "view",
      "type": "function"
    }
  ],
  "bytecode": "0x608060405234801561001057600080fd5b5061011f806100206000396000f3fe6080604052348015600f57600080fd5b506004361060285760003560e01c8063a0a2daf014602d575b600080fd5b607560048036036020811015604157600080fd5b8101908080357bffffffffffffffffffffffffffffffffffffffffffffffffffffffff1916906020019092919050505060b7565b604051808273ffffffffffffffffffffffffffffffffffffffff1673ffffffffffffffffffffffffffffffffffffffff16815260200191505060405180910390f35b60006020528060005260406000206000915054906101000a900473ffffffffffffffffffffffffffffffffffffffff168156fea265627a7a72315820a851dba4555be4fe4589031de65a223363c84624f09ed2b72c9804809aff24fb64736f6c63430005100032",
  "source": "pragma solidity ^0.5.0;\n\n///////////////////////////////////////////////////////////////////////////////////////////////////\n/**\n * @title ProxyBaseStorage\n * @dev Defining base storage for the proxy contract.\n */\n///////////////////////////////////////////////////////////////////////////////////////////////////\n\ncontract ProxyBaseStorage {\n\n    //////////////////////////////////////////// VARS /////////////////////////////////////////////\n\n    // maps functions to the delegate contracts that execute the functions.\n    // funcId => delegate contract\n    mapping(bytes4 => address) public delegates;\n\n    // array of function signatures supported by the contract.\n    bytes[] internal funcSignatures;\n\n    // maps each function signature to its position in the funcSignatures array.\n    // signature => index+1\n    mapping(bytes => uint256) internal funcSignatureToIndex;\n\n    // proxy address of itself, can be used for cross-delegate calls but also safety checking.\n    address proxy;\n\n    ///////////////////////////////////////////////////////////////////////////////////////////////\n\n}\n",
  "sourcePath": "/home/conner/coding/Ethereum/Blockchain_Codes/DApp_vue/contracts/ProxyReceiver/ProxyBaseStorage.sol",
  "compiler": {
    "name": "solc",
    "version": "0.5.16+commit.9c3226ce.Emscripten.clang"
  },
  "schemaVersion": "3.2.0",
  "updatedAt": "2020-11-26T09:07:18.686Z",
  "devdoc": {
    "methods": {}
  },
  "userdoc": {
    "methods": {},
    "notice": "////////////////////////////////////////////////////////////////////////////////////////////////"
  }
}