{
  "contractName": "ProxyReceiverStorage_001_ERC1155MockReceiver",
  "abi": [
    {
      "constant": true,
      "inputs": [
        {
          "internalType": "bytes4",
          "name": "",
          "type": "bytes4"
        }
      ],
      "name": "delegates",
      "outputs": [
        {
          "internalType": "address",
          "name": "",
          "type": "address"
        }
      ],
      "payable": false,
      "stateMutability": "view",
      "type": "function"
    },
    {
      "constant": true,
      "inputs": [],
      "name": "shouldReject",
      "outputs": [
        {
          "internalType": "bool",
          "name": "",
          "type": "bool"
        }
      ],
      "payable": false,
      "stateMutability": "view",
      "type": "function"
    }
  ],
  "bytecode": "0x608060405234801561001057600080fd5b50610165806100206000396000f3fe608060405234801561001057600080fd5b50600436106100365760003560e01c80631dbb93811461003b578063a0a2daf01461005d575b600080fd5b6100436100ea565b604051808215151515815260200191505060405180910390f35b6100a86004803603602081101561007357600080fd5b8101908080357bffffffffffffffffffffffffffffffffffffffffffffffffffffffff191690602001909291905050506100fd565b604051808273ffffffffffffffffffffffffffffffffffffffff1673ffffffffffffffffffffffffffffffffffffffff16815260200191505060405180910390f35b600360149054906101000a900460ff1681565b60006020528060005260406000206000915054906101000a900473ffffffffffffffffffffffffffffffffffffffff168156fea265627a7a72315820ec8ed938be926ac997bf0c64944abf53a169c82ca72519cf3a04b93a150359ef64736f6c63430005100032",
  "source": "pragma solidity ^0.5.0;\n\nimport \"../ProxyBaseStorage.sol\";\n\n///////////////////////////////////////////////////////////////////////////////////////////////////\n/**\n * @title DelegatesStorage\n * @dev Defining storage inheritance for the delegate contract(s).\n *      Note:   This is not the only way to define your storage, DYOR.\n */\n///////////////////////////////////////////////////////////////////////////////////////////////////\n\ncontract ProxyReceiverStorage_001_ERC1155MockReceiver is ProxyBaseStorage {\n\n    //////////////////////////////////////////// VARS /////////////////////////////////////////////\n\n    // Note: if you alter these values in another delegate impl it affects this too\n    bool public shouldReject;\n\n    ///////////////////////////////////////////////////////////////////////////////////////////////\n\n}\n\n///////////////////////////////////////////////////////////////////////////////////////////////////\n\ncontract ProxyReceiverStorage_002_ERCXXXXFuture is ProxyReceiverStorage_001_ERC1155MockReceiver {\n\n    //////////////////////////////////////////// VARS /////////////////////////////////////////////\n\n    bool public shouldRejectXXXX; // var renamed to be specific to prevent clash with parent data version\n\n    ///////////////////////////////////////////////////////////////////////////////////////////////\n\n}\n\n///////////////////////////////////////////////////////////////////////////////////////////////////",
  "sourcePath": "/home/conner/coding/Ethereum/Blockchain_Codes/DApp_vue/contracts/ProxyReceiver/Delegates/DelegatesStorage.sol",
  "compiler": {
    "name": "solc",
    "version": "0.5.16+commit.9c3226ce.Emscripten.clang"
  },
  "schemaVersion": "3.2.0",
  "updatedAt": "2020-06-15T12:57:12.293Z",
  "devdoc": {
    "methods": {}
  },
  "userdoc": {
    "methods": {},
    "notice": "////////////////////////////////////////////////////////////////////////////////////////////////"
  }
}